:10000000A220A200A203A20078A960853F203F00A1
:10001000BABD0001588DF807290F853FA80A0A0AC2
:100020000A853EAA2CFFCFA000B916C9F00D0980A1
:10003000995007C810F3A9C520A8FC2C61C0100B6B
:10004000ADF8073A854164406C40002000C8C90003
:10005000D0EEA9088545644464476446207ECAB052
:10006000DFA90A854564446447A9018546207ECA04
:10007000B0CE4C01081890013808FAA004B93D0030
:10008000488810F9863D78A960853F203F00BABDB9
:100090000001588DF807290F853FA80A0A0A0A852A
:1000A0003EAA2CFFCF203FCA9004A92F8015A9801B
:1000B0003C83C0D0052000C8B009A53D4828B03415
:1000C0002057CADAA63F9D7804689DF804989D7869
:1000D0000508689DF805A00068993D00C8C0059016
:1000E000F7BDF80548BD780548BDF80448BD78045B
:1000F000FA7A2860182058CB80C900000000977554
:10010000A9039D81C0BD83C009019D83C0A9079D2E
:1001100082C0A00AA9FF9D80C03C81C010FB88D08E
:10012000F5BD83C029FE9D83C0A93D8540A9C98531
:1001300041206DC92081C9C901D065A9498540A95F
:10014000C98541206DC9209AC9C901D056A43FB9BB
:10015000F805C9AAD04AA9558540A9C98541206D8D
:10016000C92081C9A9618540A9C98541206DC920DF
:1001700081C9C901F0E0C900D026A95B8540A9C9A1
:100180008541206DC9209AC9C900D014A43FB9780F
:10019000042940F048BD83C009109D83C04CEFC8BE
:1001A0004C04C9A9558540A9C98541206DC9A967D5
:1001B0008540A9C98541206DC92081C9C901F0E3E5
:1001C000C900D0034CDDC8A9438540A9C985412099
:1001D0006DC92081C9C901F0F6C900D027A94F8592
:1001E00040A9C98541206DC92081C9C900D015BD6C
:1001F00083C009809D83C0BD81C009049D81C01852
:10020000A000900338A027BD83C009019D83C0A929
:10021000009D82C0986020204170706C655D5B53CA
:10022000642076312E32202863293230313820463E
:100230006C6F7269616E20526569747A00400000CB
:100240000000954100000000F948000001AA875015
:1002500000000200FF7700000000FF7A00000000AD
:10026000FF6940000000776900000000FF5AA0000D
:10027000B1409D80C03C81C010FBC8C00690F17A9F
:1002800060A9FF9D80C03C81C010FBBD80C08980FB
:10029000D0EF48A9FF9D80C068602081C9485AA05E
:1002A000044CA9C9A9FF9D80C03C81C010FBBD8042
:1002B000C04888D0EFA43F6899F805689978056828
:1002C00099F804689978047AA9FF9D80C06860DA7B
:1002D0005AA63FA43EA5469DF805A5479D78059ED4
:1002E000F8049E78049845432970F005A9029DF80A
:1002F0000424431007BDF8041A9DF804A91039839B
:10030000C0D011A0091EF8053E78053EF8043E78DD
:100310000488D0F17AFA605AA43F9D80C0B978046D
:100320009D80C0B9F8049D80C0B978059D80C0B992
:10033000F8059D80C0A9FF9D80C02081C97A6048D2
:10034000A9403C83C018F00138686048A9203C836C
:10035000C018F001386860A542F00CC901F00BC963
:1003600002F00AA90138604C70CA4C7ECA4CE7CA38
:10037000A500204BCA9002A92BA2FFA0FF6020CFAE
:10038000C9BD83C029FE9D83C0A9512017CAC900D9
:10039000D050A9FF9D80C0BD80C0C9FED0F4BD81F2
:1003A000C009109D81C0A9FF9D80C0A000BD80C074
:1003B0009144C8D0F8E645BD80C09144C8D0F8C685
:1003C00045BD80C0BD80C0BD80C0BD81C029EF9D3E
:1003D00081C018A9000848BD83C009019D83C06879
:1003E000286038A92780EE204BCAB06720CFC9BD4E
:1003F00083C029FE9D83C0A9582017CAC900D04ECA
:10040000A9FF9D80C0A9FE9D80C0A000B1449D8031
:10041000C0C8D0F8E645B1449D80C0C8D0F8C645F4
:10042000A9FF9D80C09D80C09D80C0BD80C0291F48
:10043000C905D01A18A5000848A9FF9D80C0BD8035
:10044000C0F0F6BD83C009019D83C068286038A94B
:100450002780E438A92B80DFA004B9480048881021
:10046000F9BABD0D0185481869039D0D01BD0E0146
:10047000854969009D0E01A001B1488542C8B14877
:10048000AAC8B14885498648A901A642E00AB01A1F
:10049000B248DDE1CCD027A001B148A43F9978064D
:1004A0008A0AAA20C2CBB002A900AAA00068994873
:1004B00000C8C00590F78AA002A200C90160A90483
:1004C00080E87CEBCC2046CCA43FB97806D00EA5C2
:1004D0004CF004A9213860A904924A1860A64CF097
:1004E00016CAF008CACAF00FA9213860A901924AB9
:1004F000A8A900914A1860A9E8A63E203FCAB00208
:100500000910204BCA90020904924AA001A9FF9148
:100510004AC8914AC8A900914AA54CF00CA004B958
:10052000FBCC914AC8C01990F618602046CCA64C66
:10053000F00FCAF00CCAF006CAF007CAF003A921EE
:100540003860A91F3860A002B148854AC8B1488503
:100550004BC8B148854C602071CC900160A63EA488
:100560003F4C7ECA2071CC900160A63EA43F4CE770
:10057000CAB97806F044C901F00EC902F00EC903E9
:10058000F010C904F0118032A53E8010A53E09800C
:10059000800AA53E3A8005A53E3A09808543A0021F
:1005A000B1488544C8B1488545C8B1488546C8B1F9
:1005B000488547C8B148D0061860A9113860A92DF0
:1005C0003860B97806F004A9001860A9113860B93C
:1005D000780618F003A9113860A9013860A92738F6
:1005E0006003030301030101010404C5CB57CC647C
:1005F000CCC2CC2BCCCFCCD9CCD9CCDDCCDDCC1063
:100600004150504C455D5B53442020202020202049
:1006100002001200000000000000000000000000C6
:1006200000000000000000000000000000000000CA
:1006300000000000000000000000000000000000BA
:1006400000000000000000000000000000000000AA
:10065000000000000000000000000000000000009A
:10066000000000000000000000000000000000008A
:10067000000000000000000000000000000000007A
:10068000000000000000000000000000000000006A
:10069000000000000000000000000000000000005A
:1006A000000000000000000000000000000000004A
:1006B000000000000000000000000000000000003A
:1006C000000000000000000000000000000000002A
:1006D000000000000000000000000000000000001A
:1006E000000000000000000000000000000000000A
:1006F00000000000000000000000000000000000FA
:1007000000000000000000000000000000000000E9
:1007100000000000000000000000000000000000D9
:1007200000000000000000000000000000000000C9
:1007300000000000000000000000000000000000B9
:1007400000000000000000000000000000000000A9
:100750000000000000000000000000000000000099
:100760000000000000000000000000000000000089
:100770000000000000000000000000000000000079
:100780000000000000000000000000000000000069
:100790000000000000000000000000000000000059
:1007A0000000000000000000000000000000000049
:1007B0000000000000000000000000000000000039
:1007C0000000000000000000000000000000000029
:1007D0000000000000000000000000000000000019
:1007E0000000000000000000000000000000000009
:1007F00000000000000000000000000000000000F9
:00000001FF
